:020000040000FA
:10000000D00400202D03000035030000370300005A
:10001000390300003B0300003D0300000000000026
:100020000000000000000000000000003F0300008E
:1000300041030000000000004303000045030000EE
:1000400047030000490300004B0300004D0300007C
:100050004F0300005103000053030000550300004C
:1000600057030000590300005B0300005D0300001C
:100070005F030000610300006303000065030000EC
:1000800067030000690300006B0300006D030000BC
:100090006F0300007103000073030000750300008C
:1000A00077030000790300007B0300007D0300005C
:1000B0007F0300008103000083030000850300002C
:1000C00087030000890300008B0300008D030000FC
:1000D0008F030000910300009303000095030000CC
:1000E0009703000099030000000000009B0300003C
:1000F0009D0300009F030000A1030000A303000074
:10010000A5030000A7030000A9030000AB03000043
:100110000000000000000000AD030000AF0300007D
:10012000B1030000B3030000B5030000B7030000F3
:10013000B9030000BB030000BD030000BF030000C3
:1001400000000000000000000000000000000000AF
:10015000C1030000C3030000C5030000C703000083
:10016000000000000000000000000000000000008F
:10017000000000000000000000000000000000007F
:10018000000000000000000000000000000000006F
:10019000000000000000000000000000000000005F
:1001A000000000000000000000000000000000004F
:1001B000C9030000CB030000CD030000CF03000003
:1001C000D1030000D3030000D5030000D7030000D3
:1001D000D9030000DB030000DD030000DF030000A3
:1001E000E1030000E3030000E5030000000000005D
:1001F00000000000E7030000E9030000EB0300003B
:10020000ED030000EF03000000000000000000000C
:10021000F1030000F3030000F5030000F703000002
:10022000F9030000FB030000FD030000FF030000D2
:10023000010400000304000005040000070400009E
:10024000090400000B0400000D0400000F0400006E
:10025000110400001304000015040000170400003E
:10026000190400001B0400001D04000000F002F847
:1002700000F04CF80AA090E8000C82448344AAF1F4
:100280000107DA4501D100F041F8AFF2090EBAE8F2
:100290000F0013F0010F18BFFB1A43F001031847BA
:1002A000180E0000380E00000A4410F8014B14F03C
:1002B0000F0508BF10F8015B240908BF10F8014BB7
:1002C0006D1E05D010F8013B6D1E01F8013BF9D100
:1002D000641E03D0641E01F8015BFBD19142E4D39C
:1002E000704700000023002400250026103A28BF94
:1002F00078C1FBD8520728BF30C148BF0B60704798
:100300001FB500F029FE1FBD10B510BD00F09BF811
:100310001146FFF7F5FF00F075FD00F0B9F803B4E2
:10032000FFF7F2FF03BC00F0C1F800003F48804730
:100330003F480047FEE7FEE7FEE7FEE7FEE7FEE791
:10034000FEE7FEE7FEE7FEE7FEE7FEE7FEE7FEE785
:10035000FEE7FEE7FEE7FEE7FEE7FEE7FEE7FEE775
:10036000FEE7FEE7FEE7FEE7FEE7FEE7FEE7FEE765
:10037000FEE7FEE7FEE7FEE7FEE7FEE7FEE7FEE755
:10038000FEE7FEE7FEE7FEE7FEE7FEE7FEE7FEE745
:10039000FEE7FEE7FEE7FEE7FEE7FEE7FEE7FEE735
:1003A000FEE7FEE7FEE7FEE7FEE7FEE7FEE7FEE725
:1003B000FEE7FEE7FEE7FEE7FEE7FEE7FEE7FEE715
:1003C000FEE7FEE7FEE7FEE7FEE7FEE7FEE7FEE705
:1003D000FEE7FEE7FEE7FEE7FEE7FEE7FEE7FEE7F5
:1003E000FEE7FEE7FEE7FEE7FEE7FEE7FEE7FEE7E5
:1003F000FEE7FEE7FEE7FEE7FEE7FEE7FEE7FEE7D5
:10040000FEE7FEE7FEE7FEE7FEE7FEE7FEE7FEE7C4
:10041000FEE7FEE7FEE7FEE7FEE7FEE7FEE7000099
:1004200004480549034A054B704700006D0B000066
:100430006D020000D0020020D0040020D002002075
:10044000704770477047754600F02CF8AE460500BF
:100450006946534620F00700854618B020B5FFF7DF
:10046000DFFFBDE820404FF000064FF000074FF0DF
:1004700000084FF0000BAC46ACE8C009ACE8C0097E
:10048000ACE8C009ACE8C00921F007018D4670470F
:1004900010B50446AFF300802046BDE81040FFF7DA
:1004A0003EBF00000048704770020020014918203C
:1004B000ABBEFEE72600020070470000EFF310809D
:1004C00062B670470020704785B004908DF80F1019
:1004D00002929DF80800C00740B1FFE70498D0F8E9
:1004E00000049DF80F100843019007E00498D0F82D
:1004F00000049DF80F1088430190FFE701980499CC
:10050000C1F800049DF808008007002808D5FFE71F
:100510000498D0F820049DF80F100843009007E0DD
:100520000498D0F820049DF80F1088430090FFE74E
:1005300000980499C1F8200405B0704791B010905C
:100540008DF83F100E920D9300208DF83300FFE7D9
:100550009DF8330007282ADCFFE79DF83F009DF84F
:100560003310C840C007D8B1FFE71098D0F8C40FC7
:100570009DF833104A000321914088431099C1F837
:10058000C40F0E98C0F341109DF83310490000FAD3
:1005900001F21099D1F8C40F1043C1F8C40FFFE75E
:1005A000FFE79DF8330001308DF83300D0E79DF868
:1005B0003800C00740B1FFE71098D0F800059DF85B
:1005C0003F1008430B9007E01098D0F800059DF805
:1005D0003F1088430B90FFE70B981099C1F8000576
:1005E0009DF838008007002808D5FFE71098D0F85C
:1005F00004059DF83F1008430A9007E01098D0F8D2
:1006000004059DF83F1088430A90FFE70A98109967
:10061000C1F804059DF838004007002808D5FFE719
:100620001098D0F808059DF83F100843099007E09E
:100630001098D0F808059DF83F1088430990FFE70F
:1006400009981099C1F808059DF83800000700289E
:1006500008D5FFE71098D0F818059DF83F1008431B
:10066000089007E01098D0F818059DF83F108843CF
:100670000890FFE708981099C1F818059DF8380010
:10068000C006002808D5FFE71098D0F83C059DF873
:100690003F100843079007E01098D0F83C059DF8FC
:1006A0003F1088430790FFE707981099C1F83C0571
:1006B0009DF83400C00740B1FFE71098D0F80C0552
:1006C0009DF83F100843069007E01098D0F80C05FD
:1006D0009DF83F1088430690FFE706981099C1F8EF
:1006E0000C059DF834008007002808D5FFE7109816
:1006F000D0F810059DF83F100843059007E01098CA
:10070000D0F810059DF83F1088430590FFE7059845
:100710001099C1F810059DF834004007002808D54D
:10072000FFE71098D0F814059DF83F100843049097
:1007300007E01098D0F814059DF83F108843049006
:10074000FFE704981099C1F814059DF834000007DC
:10075000002808D5FFE71098D0F81C059DF83F1039
:100760000843039007E01098D0F81C059DF83F104F
:1007700088430390FFE703981099C1F81C059DF882
:1007800035008007002808D5FFE71098D0F8440509
:100790009DF83F100843029007E01098D0F84405F8
:1007A0009DF83F1088430290FFE702981099C1F826
:1007B00044059DF83500800740B1FFE71098D0F858
:1007C00040059DF83F100843019007E01098D0F8CD
:1007D00040059DF83F1088430190FFE7019810996C
:1007E000C1F840050D9840B9FFE71098D0F82805EA
:1007F0009DF83F100843009007E01098D0F82805B6
:100800009DF83F1088430090FFE700981099C1F8C9
:10081000280511B07047000083B002909DF80A00CF
:1008200001904EF26C00C4F20F0000680199C840BC
:10083000C00750B1FFE7019941F22800C0F2000063
:1008400000EBC1004068019008E0019941F22800E6
:10085000C0F2000050F831000190FFE79DF8090058
:1008600000900198D0F82C05009A0F219140884300
:10087000029901F00F01914008430199C1F82C053C
:1008800003B0704780B584B003908DF80B100398C7
:100890009DF80B10012201920823FFF74FFE019AE9
:1008A00003989DF80B10FFF70FFE04B080BD000009
:1008B00080B582B001908DF8031001989DF8031067
:1008C0000222FFF701FE01989DF803100122082380
:1008D000FFF734FE02B080BD82B001908DF80310A6
:1008E0008DF802209DF8020001999DF8032041F83F
:1008F000220002B07047000081B0009000980428E8
:1009000009D1FFE74EF62451CEF20001086840F409
:10091000803008603EE00098052809D1FFE74EF6D8
:100920002451CEF20001086840F40030086030E045
:100930000098062809D1FFE74EF62451CEF20001B7
:10094000086840F48020086022E000980F2809D150
:10095000FFE74EF21001CEF20001086840F00200FD
:10096000086014E00098102810D3FFE70098A0F169
:10097000100101F01F02012090404A0941F21401C8
:10098000C0F2000151F822100860FFE7FFE7FFE71F
:10099000FFE7FFE701B0704780B5FFF78FFD002844
:1009A00018BF012080BD000084B0039002914EF674
:1009B0000850CEF20000006840F20001C2F20001CF
:1009C000884227D0FFE74EF60850CEF200000068BC
:1009D000009000200190FFE701989A2810D8FFE7C7
:1009E0000199009850F82100019A40F20001C2F2EA
:1009F000000141F82200FFE7019801300190EBE788
:100A000040F20000C2F200004EF60851CEF20001A2
:100A10000860FFE70298039A40F20001C2F2000169
:100A200041F8220004B0704783B002900191009217
:100A30000298019908440190019800686FF35200F0
:100A400000990843019908609DF80000800700287C
:100A500008D5FFE70199B020086201994FF4306092
:100A6000486207E001998C200862019940F60C0069
:100A70004862FFE703B0704782B00190009101998E
:100A8000009A885840F00100885002B0704700007A
:100A900083B002900191009202980199084401905C
:100AA000019800688007002805D5FFE700984008F6
:100AB0000199086104E00098013801990861FFE795
:100AC00003B0704783B0029001918DF803209DF828
:100AD0000300C00730B1FFE7019A0299886810430C
:100AE000886005E0019A0299886890438860FFE772
:100AF00003B0704785B00490039102920498039963
:100B000021F03F0108440190019800688007002807
:100B100004D5FFE7029840080290FFE701980069BA
:100B2000009000980299401A00909DF80C00C007B0
:100B300020B1FFE700980199C86103E0009801998E
:100B40008861FFE705B0704781B00090009901F41B
:100B50007F40C008C9B240EA81014CF20002C4F2F1
:100B6000FC320120885001B07047000081B04EF681
:100B70008851CEF20001086840F4700008604EF21F
:100B80007001C4F20F0142F61000C0F280700860DC
:100B90004EF26002C4F20F0243F6D120C0F28E7012
:100BA000106042F64250C0F29E10106042F6000003
:100BB000C0F28010086000200090FFE70098C00895
:100BC0007C2805D8FFE7FFE7009801300090F5E7A3
:100BD0004EF26001C4F20F0140F64250C0F29E1086
:100BE00008604EF27001C4F20F0140F60000C0F23E
:100BF0008010086000200090FFE70098C0087C2863
:100C000005D8FFE7FFE7009801300090F5E74EF2C6
:100C10006001C4F20F0140F64250C0F2DE100860DD
:100C2000FFE74EF25000C4F20F00006800F04000F1
:100C3000402801D0FFE7F4E74EF26001C4F20F0153
:100C400040F24250C0F2DE1008604EF27001C4F271
:100C50000F014FF0C070086000200090FFE700987F
:100C600042F20F71884205D8FFE7FFE70098013094
:100C70000090F4E701B0704780B545F20000C4F27F
:100C8000020002210022FFF727FE41F20000C4F219
:100C90000300012100F02CF880BD000082B001901B
:100CA00000910199C86840F201129043C8609DF814
:100CB00003000199086041F20001C4F20301002021
:100CC000086041F20401C4F203010220086002B08E
:100CD0007047000082B001900091009840F201112D
:100CE00000EA01020199C8681043C86002B0704769
:100CF00082B00190009100980199486202B070475B
:100D000082B001900091009A01998869104388612E
:100D100002B0704780B584B00390029101920398AD
:100D2000029900F021F8009000980199FFF73CFE2D
:100D30000098FFF7E1FD04B080BD000083B0029091
:100D4000019100929DF8040020B1FFE700980299FC
:100D50008862FFE79DF8050020B1FFE7009802993F
:100D6000C862FFE703B0704787B00590049140F672
:100D70007470C0F2000000900C2001904EF2000050
:100D8000C4F20F0000680021C7F2FF0108400021F3
:100D9000C1F20A01884208D1FFE740F6D470C0F2E0
:100DA0000000009008200190FFE700200290FFE77C
:100DB0000298019988421FD2FFE70098029950F8E3
:100DC00031000599884212D1FFE70098029900EBA3
:100DD000C100406803900498B0F57F4F04D1FFE74D
:100DE000039801300390FFE70398069007E0FFE7C0
:100DF000029801300290DBE700200690FFE706989A
:100E000007B0704780B590B0002004900F9001208B
:100E100008900E90042003900D900D980E990844B0
:100E20000C900D980C99B0FBF1F04FF4C87105913E
:100E300048430B900E980C9AB0FBF2F048430A908E
:100E40000D980C99B0FBF1F04FF47A4148430990AA
:100E5000FFF7A2FD40F20140CFF20000FFF774FE61
:100E600041F20000C4F2030000902221FFF716FFB8
:100E7000009809994A1E4FF6FF71FFF75FFF00982F
:100E800040F67942C0F20002FF210191FFF742FFD4
:100E90002520FFF731FD00980899FFF731FF0098F2
:100EA0000199FFF717FF40F60500CFF20000FFF7AA
:100EB0004BFE45F20000C4F2020002900221FFF74F
:100EC000E1FC089845F22052C4F2020244F24B3190
:100ED000C4F64F41116045F22451C4F2020108608A
:100EE00044F20100CFF20000FFF72EFE4FF0051094
:100EF000FFF792FC02980399FFF7DAFC049A49F293
:100F00000000C4F202000790C0210691FFF78CFD9B
:100F1000059A06990798FFF7BBFD07980B9AC5211C
:100F2000FFF7E8FD07980A9A4FF48371FFF7E2FD97
:100F300006990798FFF7A0FD0798089A4FF4937158
:100F4000FFF7C0FDFFE745F20000C4F202000222F5
:100F50001146FFF7C1FCF6E7F1EE100A4FF6FF71FC
:100F6000C0F2C03120EA010040F04070E1EE100A0A
:100F70007047000000000340230000000010034001
:100F8000250000000020034027000000003003403F
:100F900033000000004003405600000000500340B2
:100FA0006C000000006003406E0000000070034011
:100FB0007000000000C004407200000000D0044037
:100FC0007400000000E004407600000000F00440DF
:100FD00078000000000003402300000000100340E0
:100FE00025000000002003402700000000300340DF
:100FF00033000000004003404F0000000050034059
:101000005100000000000E407200000000100E4071
:101010007400000000E100E004E100E008E100E00D
:101020000CE100E010E100E00040004000800540DD
:1010300000500040009005400060004000A00540C6
:101040000070004000B005400040024000C0054074
:101050000050024000D005400060024000E0054022
:101060000070024000F0054000D003400000064040
:1010700000100640001006400020064000200640F8
:101080000030064000300640004006400040064068
:1010900000500640005006400060064000600640D8
:1010A0000070064000700640008006400080064048
:1010B0000090064000900640001400000000002050
:1010C0006C020000A802000008140000700200205A
:1010D00060020000E40200000000000000000000C8
:1010E0000000000000000000000000000000000000
:1010F00000000000000000000000000000000000F0
:1011000000000000000000000000000000000000DF
:1011100000000000000000000000000000000000CF
:0814000001FF01FF0171000072
:040000050000032DC7
:00000001FF
